:020000020000FC
:1000000040EF40930A014FEF47B943BB41B940BBB2
:10001000A8E9BAE343E04A950000E9F7A150B040EF
:10002000C9F768E3F2D0A8E8B3E143E04A950000DD
:10003000E9F7A150B040C9F7E8D0A8EEB3E043E03B
:100040004A950000E9F7A150B040C9F7DED0DDD0F5
:10005000F8D068E0DAD0F5D061E0D7D0F2D066E031
:10006000D4D0EFD06FE0D1D0ECD0442748B944BB16
:10007000BB24CC24DD24C1E0772764D04F2D4A3245
:1000800049F0642F605DCED0DCD05AE0759F702DB2
:10009000740FF3CF443409F44DE2642FC3D0D1D0B0
:1000A000B72E77274FD04F2D443449F0642F605D31
:1000B000B9D0C7D05AE0759F702D740FF3CF443478
:1000C00009F44DE2642FAED0BCD0C72E77273AD0CA
:1000D0004F2D433249F0642F605DA4D0B2D05AE076
:1000E000759F702D740FF3CF443409F44DE2642FE3
:1000F00099D0A7D0D72E19D01CD00BF003C0B3D005
:100100000C943800B8D040E01DD04F2D433419F086
:10011000413419F0F9CF41E001C042E0413091F3A0
:1001200061E073D08ED00C943800BC9C902D812D52
:100130000895803029F49D1922F40D1408F401C0AB
:10014000389408953FEE11271430A9F030930B0135
:100150004FEF4A95F1F7409109014F704F3041F050
:1001600021E00027542F522339F00395220FFACFB4
:10017000330F1395E9CFE6CFA0E5B3EC43E04A9502
:100180000000E9F7A150B040C9F7A0E5B3EC43E0A7
:100190004A950000E9F7A150B040C9F7A0E5B3ECDB
:1001A00043E04A950000E9F7A150B040C9F7A0E547
:1001B000B3EC43E04A950000E9F7A150B040C9F71D
:1001C000A0E5B3EC43E04A950000E9F7A150B04048
:1001D000C9F7133049F0033059F0402F440F400F56
:1001E000410F43950C94030141E4400F0C9403012B
:1001F000103029F0113031F043E20C9403014AE24F
:100200000C94030140E0F42E089561BB17981598F3
:100210000000169A00000000000016980000000080
:100220000000089561BB179A1598000000000000B7
:10023000169A000000000000169800000000000060
:1002400008954F93442740BB1798159A0000169ABB
:100250000000000000004FB1169847FDF7CF4FEFA8
:1002600040BB4F9108954FEF48B943E044BB61E074
:10027000CCDFE7DF0895442748B944BB61E0C5DF20
:10028000E0DFD92FD7FB26F46DE2CCDFDADFD195A2
:10029000C13009F018C0C0E040E0D43628F031D0B9
:1002A000405D642FBFDFCDDF403011F4DA3030F035
:1002B00040E02DD0405D642FB5DFC3DFD05D6D2FF2
:1002C000B1DFBFDF0895C1E060E3ACDFBADF68E70C
:1002D000A9DFB7DFD03158F040E01FD04A3018F026
:1002E0004A504F5B01C0405D642F9CDFAADFDA30CB
:1002F00018F0DA50DF5B01C0D05D6D2F93DFA1DF16
:100300000895D43618F04395D456FBCF0895DA30CB
:1003100018F04395DA50FBCF0895D03118F043958B
:06032000D051FBCF08954F
:00000001FF
