:020000020000FC
:040000000C9450000C
:04005C000C94A6005A
:04002C000C948C00A4
:1000A000772722270FEF0DBF01E20EBF0FEF00BB36
:1000B00001B9002701BB02B908E370D089D0A4D0F0
:1000C00008E36CD085D097D008E368D081D008E3EE
:1000D00065D07ED009E062D07BD001E05FD078D0DF
:1000E00006E05CD075D00FE059D072D03C9814E097
:1000F0001093680010E110936D0016B114FD01E03B
:1001000014FF002710E014BD13E015BD11E010939B
:100110006E0078940C94CD001F930F932F937F93D0
:1001200016B114FD11E014FF1127101751F0002330
:1001300011F4012F06C07395743011F423957727BD
:10014000012F7F912F910F911F9118950196883E55
:1001500019F5933009F501E021D03AD030E3442776
:1001600055276627243618F043952456FBCF2A30AE
:1001700018F02A505395FBCF622F430F530F630F94
:10018000042F17D025D0052F14D022D0062F11D040
:100190001FD02227992788271895FFCF01BB000081
:1001A000169A0000000000001698000000000000F1
:1001B000089501BB179A000000000000169A000085
:1001C0000000000016980000000000001798089535
:1001D0000F93002700BB01BB159A0000169A000080
:1001E000000000000FB1169807FDF7CF15980FEF2C
:1001F00000BB0F9108958F939F939FE08CE9019727
:10020000F1F79F918F910895F6DFF5DFF4DFF3DFCB
:04021000F2DF08957C
:00000001FF
